# [qtum.info](htts://qtum.info/) API

API endpoint of [qtum.info](https://qtum.info) is https://qtum.info/api/


## Table of Contents
* [Blocks](#blocks)
    * [Block information](#block-information)
    * [Raw block data](#raw-block-data)
* [Transactions](#transactions)
    * [Transaction information](#transaction-information)
    * [Raw transaction data](#raw-transaction-data)
    * [Send raw transaction](#send-raw-transaction)
    * [Search logs](#search-logs)
* [Addresses](#addresses)
    * [Address information](#address-information)
    * [Address UTXO information](#address-utxo-information)
    * [Address full transaction](#address-full-transactions)
    * [Address transaction](#address-transactions)
    * [Address token transaction](#address-token-transactions)
* [Contracts](#contracts)
    * [Token list](#token-list)
    * [Contract Information](#contract-information)
    * [Contract Transactions](#contract-transactions)
* [Misc](#misc)
    * [Blockchain status](#blockchain-status)


## Blocks

* Block information
    ```
    GET /block/:blockHeight  or  GET /block/:blockHash
    ```
    ```
    GET /block/100000
    ```
    ```json
    {
        "hash": "de1bbb38849c24c4d4593bcb2011af88fa9a64cc07029a549b1596e487257ff4",
        "height": 100000,
        "version": 536870912,
        "size": 3991,
        "weight": 15856,
        "merkleRoot": "e3c31c90dcecf4db139bdae72ae6ca59f1b79efd735632dc8ae182aee8229c00",
        "tx": [
            "f725c53e97e313ba15e97efae018495f12b5b9e2c80a4d12bcf0ccd14a5b5e4f",
            "1924f5f6e6f7e78f23e2c29dffafb526528c1a842f9bd1152d7462ae2b7c1102",
            "344c2576d27d4e054e9780429bd017285a725a4363d322dde771d0578e320119",
            "2f34012aef0b2bb2f7f72a086469fffd86ee420e358f2a55365511722751f2c7",
            "96e3b28a1887a99ee6c93ccd9d42f20ed62c9b351400a5745442e767f5487ea1",
            "f2f8e4e1fdf88ff6e07d07f561bf6d5a5ce491ccf2946d99b76cae08cff9a81b",
            "f90203949cbe4b267f1594fa4df656deb74bf9c6181aba1704576bb95011240b",
            "20b26a4010d60ef611d337859e38f1e8703d9e2dfd2a8f0cc459dc86b91c5bbc",
            "2265fb9a1959135551a0ef885c1ceff346343d7334a194cdca86720d271a918e",
            "940085ebc47d0fed633cee69763769517f5d3744c261e9b72f4883120b2a5f49",
            "c4f906c845f7e4a9bc6cfbb1c581ac12325841d7ccac0c63067c84b3aaed38f7"
        ],
        "timestamp": 1518578704,
        "nonce": 0,
        "bits": "1a043831",
        "difficulty": 3976056.22036025,
        "chainWork": "00000000000000000000000000000000000000000000003c678b829133eb23e4",
        "confirmations": 60000,
        "previousBlockHash": "dca8b3fed8c8602ceb63ec4271c778e764f94bfb95e9bbda205723e1d890c271",
        "nextBlockHash": "8af83c9b2598f2257ddcd0baebab322870b530c5c984715059597bac23e2548f",
        "reward": "432252878",
        "minedBy": {
            "type": "pubkey",
            "hex": "932a84c6ea721e73983f439858edb24cace04a72"
        },
        "duration": 192
    }
    ```

* Raw block data
    ```
    GET /rawblock/:blockHash
    ```
    ```
    GET /rawblock/000075aef83cf2853580f8ae8ce6f8c3096cfa21d98334d6e3f95e5582ed986c
    ```
    ```
    0100000000000000000000000000000000000000000000000000000000000000000000006db905142382324db417761891f2d2f355ea92f27ab0fc35e59e90b50e0534edf5d2af59ffff001ff9787a00e965ffd002cd6ad0e2dc402b8044de833e06b23127ea8c3d80aec9141077149556e81f171bcc55a6ff8345e692c0f86e5b48e01b996cadc001622fb5e363b4210000000000000000000000000000000000000000000000000000000000000000ffffffff000101000000010000000000000000000000000000000000000000000000000000000000000000ffffffff420004bf91221d0104395365702030322c203230313720426974636f696e20627265616b732024352c30303020696e206c6174657374207072696365206672656e7a79ffffffff0100f2052a010000004341040d61d8653448c98731ee5fffd303c15e71ec2057b77f11ab3601979728cdaff2d68afbba14e4fa0bc44f2072b0b23ef63717f8cdfbe58dcd33f32b6afe98741aac00000000
    ```


## Transactions

* Transaction information
    ```
    GET /tx/:txid
    ```
    ```
    GET /tx/c4f906c845f7e4a9bc6cfbb1c581ac12325841d7ccac0c63067c84b3aaed38f7
    ```
    ```json
    {
        "id": "c4f906c845f7e4a9bc6cfbb1c581ac12325841d7ccac0c63067c84b3aaed38f7",
        "hash": "c4f906c845f7e4a9bc6cfbb1c581ac12325841d7ccac0c63067c84b3aaed38f7",
        "version": 2,
        "lockTime": 99999,
        "blockHash": "de1bbb38849c24c4d4593bcb2011af88fa9a64cc07029a549b1596e487257ff4",
        "blockHeight": 100000,
        "confirmations": 75264,
        "timestamp": 1518578704,
        "size": 594,
        "weight": 2376,
        "vin": [
            {
                "txid": "940085ebc47d0fed633cee69763769517f5d3744c261e9b72f4883120b2a5f49",
                "vout": 1,
                "sequence": 4294967294,
                "n": 0,
                "value": "1850797",
                "address": {
                    "type": "pubkeyhash",
                    "hex": "036aef66b0915c6df2e0a96a92f5669e293bcb10"
                },
                "scriptSig": {
                    "hex": "473044022018ced042e2701a3efbc78ed394732282064a23dadf66c1c57f0c5321f092104902204b86d613e5abe12892112cfdf24084de644ebc057dca2a4e4f910ee9d9dfe766012103fe1aeb547b5ba08618497ea66b75ab52d1df67f60ecfd57215b096594ec5fbad",
                    "asm": "3044022018ced042e2701a3efbc78ed394732282064a23dadf66c1c57f0c5321f092104902204b86d613e5abe12892112cfdf24084de644ebc057dca2a4e4f910ee9d9dfe76601 03fe1aeb547b5ba08618497ea66b75ab52d1df67f60ecfd57215b096594ec5fbad"
                }
            },
            {
                "txid": "e277b88cadf8d0d498e17fbdb19aecba7a37b7aa6ce79cfede601566ce654df8",
                "vout": 11,
                "sequence": 4294967294,
                "n": 1,
                "value": "8516280",
                "address": {
                    "type": "pubkeyhash",
                    "hex": "036aef66b0915c6df2e0a96a92f5669e293bcb10"
                },
                "scriptSig": {
                    "hex": "483045022100bf07d826e562530ab46250637105931a00f29c03f14c05468dc32ef14ad9aa0d02202bd84f756224049ffd4256e7d0b557f597950a7692073f073bb90cbd3263467e012103fe1aeb547b5ba08618497ea66b75ab52d1df67f60ecfd57215b096594ec5fbad",
                    "asm": "3045022100bf07d826e562530ab46250637105931a00f29c03f14c05468dc32ef14ad9aa0d02202bd84f756224049ffd4256e7d0b557f597950a7692073f073bb90cbd3263467e01 03fe1aeb547b5ba08618497ea66b75ab52d1df67f60ecfd57215b096594ec5fbad"
                }
            },
            {
                "txid": "f5caac8222d17878befa1e0e01fd4eddb9e010813f8aab02c9984ba10b3a23de",
                "vout": 17,
                "sequence": 4294967294,
                "n": 2,
                "value": "8518840",
                "address": {
                    "type": "pubkeyhash",
                    "hex": "036aef66b0915c6df2e0a96a92f5669e293bcb10"
                },
                "scriptSig": {
                    "hex": "473044022065ba889983d89de0cf27ffb3a8eb40f41f6f578915ba4fa055a221b1277760ab0220077282a6825b3f89fd33bccfbb0f4018a39be7206cfd136df1f72ab6ab03475a012103fe1aeb547b5ba08618497ea66b75ab52d1df67f60ecfd57215b096594ec5fbad",
                    "asm": "3044022065ba889983d89de0cf27ffb3a8eb40f41f6f578915ba4fa055a221b1277760ab0220077282a6825b3f89fd33bccfbb0f4018a39be7206cfd136df1f72ab6ab03475a01 03fe1aeb547b5ba08618497ea66b75ab52d1df67f60ecfd57215b096594ec5fbad"
                }
            }
        ],
        "vout": [
            {
                "value": "8642923",
                "n": 0,
                "address": {
                    "type": "pubkeyhash",
                    "hex": "036aef66b0915c6df2e0a96a92f5669e293bcb10"
                },
                "scriptPubKey": {
                    "type": "pubkeyhash",
                    "hex": "76a914036aef66b0915c6df2e0a96a92f5669e293bcb1088ac",
                    "asm": "OP_DUP OP_HASH160 036aef66b0915c6df2e0a96a92f5669e293bcb10 OP_EQUALVERIFY OP_CHECKSIG"
                }
            },
            {
                "value": "0",
                "n": 1,
                "address": {
                    "type": "contract",
                    "hex": "49665919e437a4bedb92faa45ed33ebb5a33ee63"
                },
                "scriptPubKey": {
                    "type": "call",
                    "hex": "01040390d003012844a9059cbb000000000000000000000000b735abe3db72e9d2ff7b2ee2b64ea1a567fddc97000000000000000000000000000000000000000000000000000000025c2716001449665919e437a4bedb92faa45ed33ebb5a33ee63c2",
                    "asm": "4 250000 40 a9059cbb000000000000000000000000b735abe3db72e9d2ff7b2ee2b64ea1a567fddc97000000000000000000000000000000000000000000000000000000025c271600 49665919e437a4bedb92faa45ed33ebb5a33ee63 OP_CALL"
                }
            }
        ],
        "valueOut": "8642923",
        "valueIn": "18885917",
        "fees": "10242994",
        "receipts": [
            {
                "gasUsed": 37029,
                "contractAddress": "49665919e437a4bedb92faa45ed33ebb5a33ee63",
                "excepted": "None",
                "logs": [
                    {
                        "address": "49665919e437a4bedb92faa45ed33ebb5a33ee63",
                        "topics": [
                            "ddf252ad1be2c89b69c2b068fc378daa952ba7f163c4a11628f55a4df523b3ef",
                            "000000000000000000000000036aef66b0915c6df2e0a96a92f5669e293bcb10",
                            "000000000000000000000000b735abe3db72e9d2ff7b2ee2b64ea1a567fddc97"
                        ],
                        "data": "000000000000000000000000000000000000000000000000000000025c271600"
                    }
                ]
            }
        ],
        "tokenTransfers": [
            {
                "token": {
                    "address": "49665919e437a4bedb92faa45ed33ebb5a33ee63",
                    "name": "AWARE Token",
                    "symbol": "AWR",
                    "decimals": 8,
                    "totalSupply": "100000000000000000",
                    "version": "1.0"
                },
                "from": {
                    "type": "pubkeyhash",
                    "hex": "036aef66b0915c6df2e0a96a92f5669e293bcb10"
                },
                "to": {
                    "type": "pubkeyhash",
                    "hex": "b735abe3db72e9d2ff7b2ee2b64ea1a567fddc97"
                },
                "amount": "10136000000"
            }
        ]
    }
    ```

* Raw transaction data
    ```
    GET /rawtx/:txid
    ```
    ```
    GET /rawtx/c4f906c845f7e4a9bc6cfbb1c581ac12325841d7ccac0c63067c84b3aaed38f7
    ```
    ```
    0200000003495f2a0b1283482fb7e961c244375d7f5169377669ee3c63ed0f7dc4eb850094010000006a473044022018ced042e2701a3efbc78ed394732282064a23dadf66c1c57f0c5321f092104902204b86d613e5abe12892112cfdf24084de644ebc057dca2a4e4f910ee9d9dfe766012103fe1aeb547b5ba08618497ea66b75ab52d1df67f60ecfd57215b096594ec5fbadfefffffff84d65ce661560defe9ce76caab7377abaec9ab1bd7fe198d4d0f8ad8cb877e20b0000006b483045022100bf07d826e562530ab46250637105931a00f29c03f14c05468dc32ef14ad9aa0d02202bd84f756224049ffd4256e7d0b557f597950a7692073f073bb90cbd3263467e012103fe1aeb547b5ba08618497ea66b75ab52d1df67f60ecfd57215b096594ec5fbadfeffffffde233a0ba14b98c902ab8a3f8110e0b9dd4efd010e1efabe7878d12282accaf5110000006a473044022065ba889983d89de0cf27ffb3a8eb40f41f6f578915ba4fa055a221b1277760ab0220077282a6825b3f89fd33bccfbb0f4018a39be7206cfd136df1f72ab6ab03475a012103fe1aeb547b5ba08618497ea66b75ab52d1df67f60ecfd57215b096594ec5fbadfeffffff026be18300000000001976a914036aef66b0915c6df2e0a96a92f5669e293bcb1088ac00000000000000006301040390d003012844a9059cbb000000000000000000000000b735abe3db72e9d2ff7b2ee2b64ea1a567fddc97000000000000000000000000000000000000000000000000000000025c2716001449665919e437a4bedb92faa45ed33ebb5a33ee63c29f860100
    ```

* Send raw transaction
    ```
    POST /tx/send?rawtx={rawtx}
    ```
    ```
    Request Body
    rawtx = { raw transaction data in hex string }
    ```
    ```json
    {
        "txid": "c4f906c845f7e4a9bc6cfbb1c581ac12325841d7ccac0c63067c84b3aaed38f7"
    }
    ```

* Search logs
    ```
    GET /search-logs
    ```
    ```
    Request Params
    fromBlock = { search for block height >= fromBlock }
    toBlock = { search for block height <= toBlock }
    contractAddresses = { related contract addresses called in transaction }
    addresses = { related contract addresses those emit events }
    topics = { related event topics }
    from, to = { pagination }
    ```
    ```
    GET /search-logs?fromBlock=168000&toBlock=169000&addresses=e777062ec66fae8d5317efc47e1d28628deedbbc
    ```
    ```json
    [
        {
            "id": "750b5c866ac217bf13b477c48061e77271f7a2506cc20703c4b49a0366d48e2a",
            "block": {
                "height": 168008,
                "hash": "67167dadec049faaa5988e20bd9c922a630a3f372758ade5f14ff21c567e39f6"
            },
            "contractAddress": "e777062ec66fae8d5317efc47e1d28628deedbbc",
            "logs": [
                {
                    "topics": [
                        "fb425c0bd6840437c799f5176836b0ebc76d79351a6981cc4e5fbb0cdbf3e185",
                        "0000000000000000000000000000000000000000000000000000000000000000",
                        "000000000000000000000000e777062ec66fae8d5317efc47e1d28628deedbbc",
                        "000000000000000000000000979e8ffce8ba65cc610c22bf412841ab9861ab53"
                    ],
                    "address": "e777062ec66fae8d5317efc47e1d28628deedbbc",
                    "data": "0000000000000000000000000000000000000000000000000000000000000002000000000000000000000000000000000000000000000000000000020c8558005154554d00000000000000000000000000000000000000000000000000000000"
                }
            ]
        },
        {
            "id": "585834ba1b0dffd9f35387b460a1b666fb968263b4f45ba4d11f030cde328f30",
            "block": {
                "height": 168009,
                "hash": "877c96911d931671dd4704897161f89a55cd5121e060f353c066d382bde1931f"
            },
            "contractAddress": "e777062ec66fae8d5317efc47e1d28628deedbbc",
            "logs": [
                {
                    "topics": [
                        "fb425c0bd6840437c799f5176836b0ebc76d79351a6981cc4e5fbb0cdbf3e185",
                        "0000000000000000000000000000000000000000000000000000000000000000",
                        "000000000000000000000000e777062ec66fae8d5317efc47e1d28628deedbbc",
                        "000000000000000000000000979e8ffce8ba65cc610c22bf412841ab9861ab53"
                    ],
                    "address": "e777062ec66fae8d5317efc47e1d28628deedbbc",
                    "data": "0000000000000000000000000000000000000000000000000000000000000004000000000000000000000000000000000000000000000000000000020c8558005154554d00000000000000000000000000000000000000000000000000000000"
                }
            ]
        },
        {
            "id": "0247231b3f39abc35e94953a2405069533c3e201ac71fddacb57da15abcf3f03",
            "block": {
                "height": 168254,
                "hash": "db994c02ae3ebd0408c4767cbfe17c7051cc68cd4c6919e4ce5d0595fcd8103d"
            },
            "contractAddress": "e777062ec66fae8d5317efc47e1d28628deedbbc",
            "logs": [
                {
                    "topics": [
                        "fb425c0bd6840437c799f5176836b0ebc76d79351a6981cc4e5fbb0cdbf3e185",
                        "0000000000000000000000000000000000000000000000000000000000000000",
                        "000000000000000000000000e777062ec66fae8d5317efc47e1d28628deedbbc",
                        "0000000000000000000000003ef02c47f38897d0f8574c9222ab25165c750301"
                    ],
                    "address": "e777062ec66fae8d5317efc47e1d28628deedbbc",
                    "data": "0000000000000000000000000000000000000000000000000000000000000001000000000000000000000000000000000000000000000000000000000bebc2005154554d00000000000000000000000000000000000000000000000000000000"
                }
            ]
        },
        {
            "id": "db510a78a03484225a74bec2f998d201322ff39dac53ad533f8c49b6cef245e6",
            "block": {
                "height": 168286,
                "hash": "b17f7c1485eae9fc961c46510cdaf137635a3b7a027d9175f930fbb3a432eca3"
            },
            "contractAddress": "e777062ec66fae8d5317efc47e1d28628deedbbc",
            "logs": [
                {
                    "topics": [
                        "fb425c0bd6840437c799f5176836b0ebc76d79351a6981cc4e5fbb0cdbf3e185",
                        "0000000000000000000000000000000000000000000000000000000000000000",
                        "000000000000000000000000e777062ec66fae8d5317efc47e1d28628deedbbc",
                        "0000000000000000000000006da8f6e68262e9de5b2010d58aebbaebe95c54e6"
                    ],
                    "address": "e777062ec66fae8d5317efc47e1d28628deedbbc",
                    "data": "00000000000000000000000000000000000000000000000000000000000000030000000000000000000000000000000000000000000000000000000005f5e1005154554d00000000000000000000000000000000000000000000000000000000"
                }
            ]
        },
        {
            "id": "c75b3288995d3d1b1e724ba71558ac1298f822fc0845a4bbb39874ee174aacd3",
            "block": {
                "height": 168292,
                "hash": "2f882a2c925efdee4c048cc69dbf9624c5167a3d25f1598e4622472974512f77"
            },
            "contractAddress": "e777062ec66fae8d5317efc47e1d28628deedbbc",
            "logs": [
                {
                    "topics": [
                        "fb425c0bd6840437c799f5176836b0ebc76d79351a6981cc4e5fbb0cdbf3e185",
                        "0000000000000000000000000000000000000000000000000000000000000000",
                        "000000000000000000000000e777062ec66fae8d5317efc47e1d28628deedbbc",
                        "0000000000000000000000006da8f6e68262e9de5b2010d58aebbaebe95c54e6"
                    ],
                    "address": "e777062ec66fae8d5317efc47e1d28628deedbbc",
                    "data": "00000000000000000000000000000000000000000000000000000000000000010000000000000000000000000000000000000000000000000000000005f5e1005154554d00000000000000000000000000000000000000000000000000000000"
                }
            ]
        }
    ]
    ```


## Addresses

* Address Information
    ```
    GET /address/:address
    ```
    ```
    GET /address/QQr3S2Q8gLoatsmN3hQ1a2v2uM9YpU9Myk
    ```
    ```json
    {
        "balance": "3418029696156",
        "totalReceived": "267489240068907",
        "totalSent": "264071210372751",
        "unconfirmed": "0",
        "staking": "0",
        "mature": "3418029696156",
        "tokenBalances": [
            {
                "address": "f397f39ce992b0f5bdc7ec1109d676d07f7af2f9",
                "name": "Ocash",
                "symbol": "OC",
                "decimals": 8,
                "totalSupply": "1000000000000000000",
                "balance": "28500000000000000"
            },
            {
                "address": "59e7e07a4c7035a9df3f118b95ce6d64eee6ea35",
                "name": "WineChain",
                "symbol": "WID",
                "decimals": 8,
                "totalSupply": "90000000000000000",
                "balance": "500038000000000"
            },
            {
                "address": "0d109c94a65b6bdda33fc6b0627f036b32486f7b",
                "name": "Test Token",
                "symbol": "TTC",
                "decimals": 8,
                "totalSupply": "500000000000000",
                "balance": "309031540579"
            },
            {
                "address": "29eb975895082f233f19e9916c0cc32c3b3bfe85",
                "name": "EliteJeff\u0000\u0000\u0000\u0000\u0000\u0000\u0000\u0000\u0000",
                "symbol": "EJEFF\u0000\u0000\u0000\u0000\u0000",
                "decimals": 8,
                "totalSupply": "888",
                "balance": "10"
            },
            {
                "address": "9d3d4cc1986d81f9109f2b091b7732e7d9bcf63b",
                "name": "Vevue Token",
                "symbol": "Vevue",
                "decimals": 8,
                "totalSupply": "10000000000000000",
                "balance": "1000010000000000"
            },
            {
                "address": "b27d7bf95b03e02b55d5eb63d3f1692762101bf9",
                "name": "Halal Chain",
                "symbol": "HLC",
                "decimals": 9,
                "totalSupply": "1000000000000000000",
                "balance": "13349700600000000"
            },
            {
                "address": "49665919e437a4bedb92faa45ed33ebb5a33ee63",
                "name": "AWARE Token",
                "symbol": "AWR",
                "decimals": 8,
                "totalSupply": "100000000000000000",
                "balance": "2750000000000000"
            },
            {
                "address": "09800417b097c61b9fd26b3ddde4238304a110d5",
                "name": "QBT",
                "symbol": "QBT",
                "decimals": 8,
                "totalSupply": "10000000000000000",
                "balance": "469113500000000"
            },
            {
                "address": "fe59cbc1704e89a698571413a81f0de9d8f00c69",
                "name": "INK Coin",
                "symbol": "INK",
                "decimals": 9,
                "totalSupply": "1000000000000000000",
                "balance": "34500027999997952"
            },
            {
                "address": "4060e21ac01b5c5d2a3f01cecd7cbf820f50be95",
                "name": "Profile Utility Token",
                "symbol": "PUT",
                "decimals": 8,
                "totalSupply": "10000000000000000",
                "balance": "243558149460000"
            },
            {
                "address": "8b9500e2b789e002c1d0e744bd0ac7aa60dbffcc",
                "name": "CFun Token",
                "symbol": "CFun",
                "decimals": 9,
                "totalSupply": "900000000000000000",
                "balance": "0"
            },
            {
                "address": "6b8bf98ff497c064e8f0bde13e0c4f5ed5bf8ce7",
                "name": "Bodhi Token",
                "symbol": "BOT",
                "decimals": 8,
                "totalSupply": "10000000000000000",
                "balance": "25283431540579"
            },
            {
                "address": "57931faffdec114056a49adfcaa1caac159a1a25",
                "name": "SpaceCash",
                "symbol": "SPC",
                "decimals": 8,
                "totalSupply": "100000000000000000",
                "balance": "1999910100000000"
            },
            {
                "address": "b6c48b3a7c888713dd96eed92a4ee0397dd64e71",
                "name": "PlayCoin",
                "symbol": "PLY",
                "decimals": 9,
                "totalSupply": "1000000000000000000",
                "balance": "648000000000000"
            },
            {
                "address": "fdb9d0873ba524ef3ea67c1719666968e1eeb110",
                "name": "Entertainment Cash",
                "symbol": "ENT",
                "decimals": 8,
                "totalSupply": "160000000000000000",
                "balance": "70003993000000"
            }
        ],
        "blocksMined": 469,
        "totalCount": 4768
    }
    ```

* Address UTXO information
    ```
    GET /address/:address/utxo
    ```
    ```
    GET /address/QVzqtHKC6f3ev3jEmkHGwj42R6pgQWbYUW/utxo
    ```
    ```json
    [
        {
            "address": {
                "type": "pubkeyhash",
                "hex": "670bd571de089398b2d25c616604c8c88af770eb"
            },
            "txid": "6e1bd373d98247c1e7ca8b018dcfcd57b89a81ff6faa0e476569bb838625cebd",
            "vout": 13,
            "scriptPubKey": "76a914670bd571de089398b2d25c616604c8c88af770eb88ac",
            "satoshis": "8470920",
            "isStake": true,
            "height": 176319,
            "confirmations": 45
        }
    ]
    ```

* Address full transactions
    ```
    GET /address/:address/full-txs
    ```
    ```
    Request Params
    from, to = { pagination }
    ```
    ```
    GET /address/QXDZB2c4TBRSWqYY1ifQQHMu9MuiDW3oYi/full-txs
    ```
    ```json
    {
        "totalCount": 6,
        "from": 0,
        "to": 6,
        "transactions": [
            "2f1aa785cf457df95e902c7b085b7385c08098b3a6422734d58f07f7652a502c",
            "3968a6a6cf8e824ae9b27631cc5ae1e65cdc4223dae28f3fba93fd532400c8f1",
            "52daa118f138e1b159f20c931af2e2da6efd7a88f8916bad615e7ce44c1c4542",
            "526606dbb1e30c64e0612e10ddc4f7b978021832a84eaec5345b9fb791786302",
            "ac20db766204c6ef7821d586b8e8ba18d4e3c617404b012e17fb39152e390e16",
            "44ecf21909cc673cd450bbda0a562b8e34ac7a2f0768d7ab7bf49ae006534007"
        ]
    }
    ```

* Address transactions
    ```
    GET /address/:address/txs
    ```
    ```
    Request Params
    from, to = { pagination }
    ```
    ```
    GET /address/QXDZB2c4TBRSWqYY1ifQQHMu9MuiDW3oYi/txs
    ```
    ```json
    {
        "totalCount": 4,
        "transactions": [
            {
                "id": "3968a6a6cf8e824ae9b27631cc5ae1e65cdc4223dae28f3fba93fd532400c8f1",
                "block": {
                    "height": 113759,
                    "hash": "b77708668cf38e3f9fea66d924498c8d26922a12deb3428bc124a0297c01cdbd",
                    "timestamp": 1520563216
                },
                "amount": "-97699640"
            },
            {
                "id": "52daa118f138e1b159f20c931af2e2da6efd7a88f8916bad615e7ce44c1c4542",
                "block": {
                    "hash": "87c6ac2958f3efe9d25db6698a4ea731bdf95381a0250ca7a09f3626f27115f9",
                    "height": 97686,
                    "timestamp": 1518242096
                },
                "amount": "-4844600"
            },
            {
                "id": "526606dbb1e30c64e0612e10ddc4f7b978021832a84eaec5345b9fb791786302",
                "block": {
                    "hash": "87c6ac2958f3efe9d25db6698a4ea731bdf95381a0250ca7a09f3626f27115f9",
                    "height": 97686,
                    "timestamp": 1518242096
                },
                "amount": "2544240"
            },
            {
                "id": "44ecf21909cc673cd450bbda0a562b8e34ac7a2f0768d7ab7bf49ae006534007",
                "block": {
                    "hash": "1b066cca53e2a3f81dc6963be1b45e234fcd279955135a98704372d426ba8499",
                    "height": 93436,
                    "timestamp": 1517629600
                },
                "amount": "100000000"
            }
        ]
    }
    ```

* Address token transactions
    ```
    GET /address/:address/token-txs
    ```
    ```
    Request Params
    from, to = { pagination }
    ```
    ```
    GET /address/QXDZB2c4TBRSWqYY1ifQQHMu9MuiDW3oYi/token-txs
    ```
    ```json
    {
        "totalCount": 3,
        "transactions": [
            {
                "id": "2f1aa785cf457df95e902c7b085b7385c08098b3a6422734d58f07f7652a502c",
                "block": {
                    "height": 141509,
                    "hash": "e23b532897121aafb5fd7eff23efa4f0ebbab8cc39da43d8dc1acee7a9c0d1c7",
                    "timestamp": 1524564448
                },
                "data": [
                    {
                        "token": {
                            "address": "fe59cbc1704e89a698571413a81f0de9d8f00c69",
                            "name": "INK Coin",
                            "symbol": "INK",
                            "decimals": 9,
                            "totalSupply": "1000000000000000000"
                        },
                        "amount": "21439764000"
                    }
                ]
            },
            {
                "id": "52daa118f138e1b159f20c931af2e2da6efd7a88f8916bad615e7ce44c1c4542",
                "block": {
                    "hash": "87c6ac2958f3efe9d25db6698a4ea731bdf95381a0250ca7a09f3626f27115f9",
                    "height": 97686,
                    "timestamp": 1518242096
                },
                "data": [
                    {
                        "token": {
                            "address": "09800417b097c61b9fd26b3ddde4238304a110d5",
                            "name": "QBT",
                            "symbol": "QBT",
                            "decimals": 8,
                            "totalSupply": "10000000000000000"
                        },
                        "amount": "-100000000000"
                    }
                ]
            },
            {
                "id": "ac20db766204c6ef7821d586b8e8ba18d4e3c617404b012e17fb39152e390e16",
                "block": {
                    "hash": "1b066cca53e2a3f81dc6963be1b45e234fcd279955135a98704372d426ba8499",
                    "height": 93436,
                    "timestamp": 1517629600
                },
                "data": [
                    {
                        "token": {
                            "address": "09800417b097c61b9fd26b3ddde4238304a110d5",
                            "name": "QBT",
                            "symbol": "QBT",
                            "decimals": 8,
                            "totalSupply": "10000000000000000"
                        },
                        "amount": "100000000000"
                    }
                ]
            }
        ]
    }
    ```


## Contracts

* Token list
    ```
    GET /contract/tokens
    ```
    ```
    Request Params
    from, to = { pagination }
    ```
    ```json
    {
        "totalCount": 165,
        "tokens": [
            {
                "address": "5a4b7889cad562d6c099bf877c8f5e3d66d579f8",
                "name": "FENIX.CASH",
                "symbol": "FENIX",
                "decimals": 18,
                "totalSupply": "432000000000000000000000000",
                "holders": 59345
            },
            {
                "address": "6b8bf98ff497c064e8f0bde13e0c4f5ed5bf8ce7",
                "name": "Bodhi Token",
                "symbol": "BOT",
                "decimals": 8,
                "totalSupply": "10000000000000000",
                "holders": 36017
            },
            {
                "address": "fe59cbc1704e89a698571413a81f0de9d8f00c69",
                "name": "INK Coin",
                "symbol": "INK",
                "decimals": 9,
                "totalSupply": "1000000000000000000",
                "holders": 32926
            },
            {
                "address": "57931faffdec114056a49adfcaa1caac159a1a25",
                "name": "SpaceCash",
                "symbol": "SPC",
                "decimals": 8,
                "totalSupply": "100000000000000000",
                "holders": 22367
            },
            {
                "address": "72e531e37c31ecbe336208fd66e93b48df3af420",
                "name": "Luna Stars",
                "symbol": "LSTR",
                "decimals": 8,
                "totalSupply": "3800000000000000000",
                "holders": 14976
            },
            {
                "address": "b27d7bf95b03e02b55d5eb63d3f1692762101bf9",
                "name": "Halal Chain",
                "symbol": "HLC",
                "decimals": 9,
                "totalSupply": "1000000000000000000",
                "holders": 9897
            },
            {
                "address": "f2703e93f87b846a7aacec1247beaec1c583daa4",
                "name": "Hyperpay",
                "symbol": "HPY",
                "decimals": 8,
                "totalSupply": "265000000000000000",
                "holders": 9758
            },
            {
                "address": "b6c48b3a7c888713dd96eed92a4ee0397dd64e71",
                "name": "PlayCoin",
                "symbol": "PLY",
                "decimals": 9,
                "totalSupply": "1000000000000000000",
                "holders": 8252
            },
            {
                "address": "2f65a0af11d50d2d15962db39d7f7b0619ed55ae",
                "name": "MED TOKEN",
                "symbol": "MED",
                "decimals": 8,
                "totalSupply": "1000000000000000000",
                "holders": 8232
            },
            {
                "address": "f2033ede578e17fa6231047265010445bca8cf1c",
                "name": "QCASH",
                "symbol": "QC",
                "decimals": 8,
                "totalSupply": "1000000000000000000",
                "holders": 8228
            }
        ]
    }
    ```

* Contract information
    ```
    GET /contract/:contract
    ```
    ```
    GET /contract/6b8bf98ff497c064e8f0bde13e0c4f5ed5bf8ce7
    ```
    ```json
    {
        "balance": "0",
        "totalReceived": "1086500002",
        "totalSent": "1086500002",
        "totalCount": 17260,
        "owner": {
            "type": "pubkeyhash",
            "hex": "d965cdc9eff7412a278cd9dd7dc32e022b7bada4"
        },
        "txid": "ab35b9f424ef46b601ecf6909b36c9d524bb9321b24f18667bd9b38bd481bfb3",
        "type": "qrc20",
        "qrc20": {
            "totalSupply": "10000000000000000",
            "name": "Bodhi Token",
            "symbol": "BOT",
            "decimals": 8
        },
        "tokenBalances": []
    }
    ```

* Contract transactions
     ```
    GET /contract/:contract/txs
    ```
    ```
    Request Params
    from, to = { pagination }
    ```
    ```
    GET /contract/6b8bf98ff497c064e8f0bde13e0c4f5ed5bf8ce7/txs
    ```
    ```json
    {
        "totalCount": 17260,
        "transactions": [
            "c5f3ea442a0ab0da7478520d9637ac8e068e3bf022360603afe1f100626f2433",
            "bcba20a869ce54c1ee20dce82fa30867bacb82c3204496879b71bc763813c908",
            "ca86f8b904b2541f3300d87a5cbf5a736d3f22f2ebae6d7e4c1a29cb00865748",
            "c120eaba36af2677696233c214ece7a1ab12eb205da7a5d44012e4a5574a843d",
            "a04e31cefca14044f2a16a89d1e8c43299e66adfebbdfb0779aa646133ec484f",
            "a755e2290aae2f3a7df90676a471ac051c12f923419a2731119653e2682713b4",
            "43473fef0527fa43eeb43f942cef9135f7f649dccf82fcc3f9cdde77743d0451",
            "9a8390e901aad4eee764b07545f9e6c64bde78a466d582f7a235582e6d83aff4",
            "f6cb971c35de4fb94558b77e776d2745c1c62b4ea757cb433a2e25467e168242",
            "d05d2425ea16e0de8ea84c38211b18cbe5971d681d5d2c06ff021e1a941d8569"
        ]
    }


## Misc

* Blockchain status
    ```
    GET /info
    ```
    ```json
    {
        "height": 176393,
        "supply": 100685572,
        "circulatingSupply": 88685572,
        "netStakeWeight": 1366392860756958
    }
    ```